S01500004B616C6B756C616F72204577792E7372656314
S11300000C94F8000C940D010C940D010C940D014A
S11300100C940D010C940D010C940D010C940D0124
S11300200C940D010C940D010C940D010C940D0114
S11300300C940D010C940D010C940D010C940D0104
S11300400C940D010C940D010C940D010C940D01F4
S11300500C940D0108039D033204F702EB048005A0
S11300601506B108CE066307F807AA06C7048D086B
S11300709909460907634236B79BD8A71A396856C7
S113008018AEBAAB558C1D3CB7CC5763BD6DEDFDB6
S1130090753EF6177231BF000000803F0800000073
S11300A0BE922449123EABAAAA2ABECDCCCC4C3E69
S11300B000000080BEABAAAAAA3E00000000BF0058
S11300C00000803F0000000000084178D3BB438754
S11300D0D1133D190E3CC3BD4282AD2B3E68EC8268
S11300E076BED98FE1A93E4C80EFFFBE01C4FF7FED
S11300F03F000000000000407A10F35A00A0724E46
S113010018090010A5D4E80000E87648170000E4B8
S11301100B54020000CA9A3B000000E1F505000000
S113012080969800000040420F000000A086010065
S11301300000102700000000E80300000000640035
S1130140000000000A0000000000010000000000A0
S11301502C76D888DC674F0823DFC1DFAE59E1B1C4
S1130160B796E5E3E453C63AE651997696E8E6C2D3
S11301708426EB898C9B62ED407C6FFCEFBC9C9FDA
S113018040F2BAA56FA5F490055A2AF75C936B6CFC
S1130190F9676DC11BFCE0E40D47FEF520E6B500F0
S11301A0D0ED902E0300943577050080841E08005E
S11301B000204E0A000000C80C333333330F986E0E
S11301C012831141EF8D2114893BE65516CFFEE6CB
S11301D0DB18D1844B381BF77C1D901DA4BBE42491
S11301E0203284725E228100C9F124ECA1E53D270E
S11301F011241FBECFE5D4E0DEBFCDBF10E0A0E6E2
S1130200B0E0EEEBFEE102C005900D92A636B10718
S1130210D9F70E949F020C945D0F0C940000662392
S113022069F080FD02C090E001C090E181FD98601A
S113023082FD946083FF13C0926011C085958595FB
S11302408595859580FD02C090E001C090E181FD17
S1130250986082FD94608870883009F49260892FD8
S11302600895FC012081222391F0319680E003C09F
S11302702191222341F0611102C02E3221F08F5FBF
S11302808031B1F70895811103C081E0089581E0C0
S1130290089580EF8ABB8FEF8BBB089550E040E058
S11302A0A3C029B330E0082E02C0359527950A94DF
S11302B0E2F720FD13C02FEF3DEE62E02150304005
S11302C06040E1F700C0000029B330E0082E02C00E
S11302D0359527950A94E2F720FF8EC00196843065
S11302E09105F9F6DC9ADD9882E08A95F1F700C071
S11302F0852F942F29B330E0082E02C03595279519
S11303000A94E2F720FD15C02FEF3DEE62E0215084
S113031030406040E1F700C0000029B330E0082E0F
S113032002C0359527950A94E2F720FD02C08C5F40
S11303300895019684309105E9F6DD9ADE9882E00D
S11303408A95F1F700C0852F942F29B330E0082E49
S113035002C0359527950A94E2F720FD15C02FEFCA
S11303603DEE62E0215030406040E1F700C0000003
S113037029B330E0082E02C0359527950A94E2F798
S113038020FD02C0885F0895019684309105E9F646
S1130390DE9ADF9882E08A95F1F700C0852F942FCA
S11303A029B330E0082E02C0359527950A94E2F768
S11303B020FD15C02FEF3DEE62E02150304060403B
S11303C0E1F700C0000029B330E0082E02C03595E3
S11303D027950A94E2F720FD02C0845F08950196F0
S11303E084309105E9F6DF9ADC9882E08A95F1F78A
S11303F000C0852F942F55CF0895CF93DF93C82F36
S113040088B3817E88BBC59AD8B360E08C2F0E94E4
S11304100F018D2B88BB8AE18A95F1F700C0C5983E
S113042082E08A95F1F700C088B3817E88BBC59AC3
S1130430D8B361E08C2F0E940F018D2B88BB8AE119
S11304408A95F1F700C0C5988AE68A95F1F700C04D
S1130450DF91CF910895C79881E00E94FD01C79A6A
S11304608FE99FE00197F1F700C0000008950F9312
S11304701F93CF93DF93062F16164CF4C82FD92F52
S113048010E089910E94FD011F5F1013FACFDF91E4
S1130490CF911F910F9108958FEF87BB18BA2FEF5B
S11304A080E792E0215080409040E1F700C00000D6
S11304B0C09AC698C79883E090E0C59A28B328618B
S11304C028BBEAE1EA95F1F700C0C598E7ECF0E053
S11304D03197F1F700C000000197009771F7C59AB2
S11304E0C498FAE1FA95F1F700C0C598C79888E274
S11304F00E94FD01C79A22E02A95F1F700C0C7982F
S113050086E00E94FD01C79A82E08A95F1F700C057
S1130510C7988EE00E94FD01C79AEFECF7E031978F
S1130520F1F700C00000C79881E00E94FD01C79A5E
S11305308FE99FE00197F1F700C000000895CF9381
S1130540DF93CDB7DEB76A970FB6F894DEBF0FBE60
S1130550CDBF8FE891E00197F1F700C000000E9441
S113056049010E944C02FE01319680E1DF011D9297
S11305708A95E9F785E0E0E6F0E0DE015196019026
S11305800D928A95E1F765E0CE0141960E9437020B
S1130590BFEF29E688E1B15020408040E1F700C078
S11305A000000E942B028E010F5F1F4F28E04AE0DB
S11305B060E070E0CB010E94E60C60E0C8010E949C
S11305C03101682FC8010E943702612C212C6894E4
S11305D0552457F80F2EFFE33F2EF02D1E8AC12C11
S11305E0D12C760146015701712C412C02C077248D
S11305F073940E944E01992787FD9095A92FB92FD6
S113060080319105B0F7FC01E65DFF4F0C94E00CDE
S1130610411041C0711011C020E030E040E251E4CB
S1130620C501B4010E94DB0A20E030E040E85FE34A
S11306300E94BE094B015C011AC0262D322D452DA6
S1130640532D60E070E080E291E40E943E0B9B0138
S1130650AC0160E070E080E89FE30E94220A9B0105
S1130660AC01C501B4010E94BE094B015C018E01BD
S11306700F5F1F4F28E04AE0C501B4010E94E60C59
S11306800E942B02672DC8010E943101682FC80106
S11306900E94370240C0711011C020E030E040E2F7
S11306A051E4C701B6010E94DB0A20E030E040E8D3
S11306B05FE30E94BE096B017C011AC0262D322D16
S11306C0452D532D60E070E080E291E40E943E0BE2
S11306D09B01AC0160E070E080E89FE30E94220A85
S11306E09B01AC01C701B6010E94BE096B017C01EC
S11306F08E010F5F1F4F28E04AE0C701B6010E9438
S1130700E60C0E942B02672DC8010E943101682F5C
S1130710C8010E943702772009F46BCF20E030E053
S113072040E85FE3662D722D852D932D0E94BE094E
S1130730662E272E582E392E5CCF411041C07110E1
S113074011C020E030E040E251E4C501B4010E9450
S1130750DB0A20E030E040E850E40E94BE094B018F
S11307605C011AC0262D322D452D532D60E070E01A
S113077080E291E40E943E0B9B01AC0160E070E0DA
S113078080E890E40E94220A9B01AC01C501B401F7
S11307900E94BE094B015C018E010F5F1F4F28E0D0
S11307A04AE0C501B4010E94E60C0E942B02672DA9
S11307B0C8010E943101682FC8010E94370240C05D
S11307C0711011C020E030E040E251E4C701B601ED
S11307D00E94DB0A20E030E040E850E40E94BE09B9
S11307E06B017C011AC0262D322D452D532D60E05E
S11307F070E080E291E40E943E0B9B01AC0160E05A
S113080070E080E890E40E94220A9B01AC01C701D9
S1130810B6010E94BE096B017C018E010F5F1F4F60
S113082028E04AE0C701B6010E94E60C0E942B02B0
S1130830672DC8010E943101682FC8010E94370248
S1130840772009F4D6CE20E030E040E85FE3662D5F
S1130850722D852D932D0E94BE09662E272E582EAB
S1130860392EC7CE411041C0711011C020E030E0D4
S113087040E251E4C501B4010E94DB0A20E030E00B
S113088040EE50E40E94BE094B015C011AC0262DC3
S1130890322D452D532D60E070E080E291E40E94FA
S11308A03E0B9B01AC0160E070E080EE90E40E949E
S11308B0220A9B01AC01C501B4010E94BE094B018F
S11308C05C018E010F5F1F4F28E04AE0C501B401AF
S11308D00E94E60C0E942B02672DC8010E94310180
S11308E0682FC8010E94370240C0711011C020E077
S11308F030E040E251E4C701B6010E94DB0A20E087
S113090030E040EE50E40E94BE096B017C011AC045
S1130910262D322D452D532D60E070E080E291E4C8
S11309200E943E0B9B01AC0160E070E080EE90E41D
S11309300E94220A9B01AC01C701B6010E94BE09B4
S11309406B017C018E010F5F1F4F28E04AE0C70155
S1130950B6010E94E60C0E942B02672DC8010E947A
S11309603101682FC8010E943702772009F441CE73
S113097020E030E040E85FE3662D722D852D932D55
S11309800E94BE09662E272E582E392E32CE0E9482
S11309902B028E010F5F1F4F28E04AE0C701B6010A
S11309A00E94E60C0E942B0260E0C8010E94310103
S11309B0682FC8010E943702612C212C68945524A9
S11309C057F80F2EFFE33F2EF02D91E09E8B712CF4
S11309D0442443940ECE411041C0711011C020E054
S11309E030E040E251E4C501B4010E94DB0A20E09A
S11309F030E040E050E40E94BE094B015C011AC0A3
S1130A00262D322D452D532D60E070E080E291E4D7
S1130A100E943E0B9B01AC0160E070E080E090E43A
S1130A200E94220A9B01AC01C501B4010E94BE09C7
S1130A304B015C018E010F5F1F4F28E04AE0C501A6
S1130A40B4010E94E60C0E942B02672DC8010E948B
S1130A503101682FC8010E94370240C0711011C0D3
S1130A6020E030E040E251E4C701B6010E94DB0A15
S1130A7020E030E040E050E40E94BE096B017C01BC
S1130A801AC0262D322D452D532D60E070E080E2F2
S1130A9091E40E943E0B9B01AC0160E070E080E0B9
S1130AA090E40E94220A9B01AC01C701B6010E9496
S1130AB0BE096B017C018E010F5F1F4F28E04AE0E5
S1130AC0C701B6010E94E60C0E942B02672DC801E3
S1130AD00E943101682FC8010E943702772009F46F
S1130AE088CD20E030E040E85FE3662D722D852D4F
S1130AF0932D0E94BE09662E272E582E392E79CDAD
S1130B00411041C0711011C020E030E040E251E4D6
S1130B10C501B4010E94DB0A20E030E040EA50E461
S1130B200E94BE094B015C011AC0262D322D452DB1
S1130B30532D60E070E080E291E40E943E0B9B0143
S1130B40AC0160E070E080EA90E40E94220A9B011C
S1130B50AC01C501B4010E94BE094B015C018E01C8
S1130B600F5F1F4F28E04AE0C501B4010E94E60C64
S1130B700E942B02672DC8010E943101682FC80111
S1130B800E94370240C0711011C020E030E040E202
S1130B9051E4C701B6010E94DB0A20E030E040EADC
S1130BA050E40E94BE096B017C011AC0262D322D2F
S1130BB0452D532D60E070E080E291E40E943E0BED
S1130BC09B01AC0160E070E080EA90E40E94220A9C
S1130BD09B01AC01C701B6010E94BE096B017C01F7
S1130BE08E010F5F1F4F28E04AE0C701B6010E9443
S1130BF0E60C0E942B02672DC8010E943101682F68
S1130C00C8010E943702772009F4F3CC20E030E0D9
S1130C1040E85FE3662D722D852D932D0E94BE0959
S1130C20662E272E582E392EE4CC411041C0711067
S1130C3011C020E030E040E251E4C501B4010E945B
S1130C40DB0A20E030E040E051E40E94BE094B01A1
S1130C505C011AC0262D322D452D532D60E070E025
S1130C6080E291E40E943E0B9B01AC0160E070E0E5
S1130C7080E091E40E94220A9B01AC01C501B40109
S1130C800E94BE094B015C018E010F5F1F4F28E0DB
S1130C904AE0C501B4010E94E60C0E942B02672DB4
S1130CA0C8010E943101682FC8010E94370240C068
S1130CB0711011C020E030E040E251E4C701B601F8
S1130CC00E94DB0A20E030E040E051E40E94BE09CB
S1130CD06B017C011AC0262D322D452D532D60E069
S1130CE070E080E291E40E943E0B9B01AC0160E065
S1130CF070E080E091E40E94220A9B01AC01C701EC
S1130D00B6010E94BE096B017C018E010F5F1F4F6B
S1130D1028E04AE0C701B6010E94E60C0E942B02BB
S1130D20672DC8010E943101682FC8010E94370253
S1130D30772009F45ECC20E030E040E85FE3662DE4
S1130D40722D852D932D0E94BE09662E272E582EB6
S1130D50392E4FCC0E942B028E010F5F1F4F28E0CB
S1130D604AE0C701B6010E94E60C0E942B0260E033
S1130D70C8010E943101682FC8010E943702612C0A
S1130D80212C6894552457F80F2EFFE33F2EF02DA5
S1130D90A2E0AE8B712C442443942BCC411041C06F
S1130DA0711011C020E030E040E251E4C501B4010B
S1130DB00E94DB0A20E030E040E450E40E94BE09D7
S1130DC04B015C011AC0262D322D452D532D60E0B8
S1130DD070E080E291E40E943E0B9B01AC0160E074
S1130DE070E080E490E40E94220A9B01AC01C501FA
S1130DF0B4010E94BE094B015C018E010F5F1F4FBD
S1130E0028E04AE0C501B4010E94E60C0E942B02CE
S1130E10672DC8010E943101682FC8010E94370262
S1130E2040C0711011C020E030E040E251E4C7013D
S1130E30B6010E94DB0A20E030E040E450E40E9466
S1130E40BE096B017C011AC0262D322D452D532D70
S1130E5060E070E080E291E40E943E0B9B01AC01F3
S1130E6060E070E080E490E40E94220A9B01AC01FF
S1130E70C701B6010E94BE096B017C018E010F5FA0
S1130E801F4F28E04AE0C701B6010E94E60C0E9409
S1130E902B02672DC8010E943101682FC8010E94EE
S1130EA03702772009F4A5CB20E030E040E85FE387
S1130EB0662D722D852D932D0E94BE09662E272E38
S1130EC0582E392E96CB411041C0711011C020E02C
S1130ED030E040E251E4C501B4010E94DB0A20E0A5
S1130EE030E040EC50E40E94BE094B015C011AC0A2
S1130EF0262D322D452D532D60E070E080E291E4E3
S1130F000E943E0B9B01AC0160E070E080EC90E439
S1130F100E94220A9B01AC01C501B4010E94BE09D2
S1130F204B015C018E010F5F1F4F28E04AE0C501B1
S1130F30B4010E94E60C0E942B02672DC8010E9496
S1130F403101682FC8010E94370240C0711011C0DE
S1130F5020E030E040E251E4C701B6010E94DB0A20
S1130F6020E030E040EC50E40E94BE096B017C01BB
S1130F701AC0262D322D452D532D60E070E080E2FD
S1130F8091E40E943E0B9B01AC0160E070E080ECB8
S1130F9090E40E94220A9B01AC01C701B6010E94A1
S1130FA0BE096B017C018E010F5F1F4F28E04AE0F0
S1130FB0C701B6010E94E60C0E942B02672DC801EE
S1130FC00E943101682FC8010E943702772009F47A
S1130FD010CB20E030E040E85FE3662D722D852DD4
S1130FE0932D0E94BE09662E272E582E392E01CB32
S1130FF0411041C0711011C020E030E040E251E4E2
S1131000C501B4010E94DB0A20E030E040E151E474
S11310100E94BE094B015C011AC0262D322D452DBC
S1131020532D60E070E080E291E40E943E0B9B014E
S1131030AC0160E070E080E191E40E94220A9B012F
S1131040AC01C501B4010E94BE094B015C018E01D3
S11310500F5F1F4F28E04AE0C501B4010E94E60C6F
S11310600E942B02672DC8010E943101682FC8011C
S11310700E94370240C0711011C020E030E040E20D
S113108051E4C701B6010E94DB0A20E030E040E1F0
S113109051E40E94BE096B017C011AC0262D322D39
S11310A0452D532D60E070E080E291E40E943E0BF8
S11310B09B01AC0160E070E080E191E40E94220AAF
S11310C09B01AC01C701B6010E94BE096B017C0102
S11310D08E010F5F1F4F28E04AE0C701B6010E944E
S11310E0E60C0E942B02672DC8010E943101682F73
S11310F0C8010E943702772009F47BCA20E030E05F
S113110040E85FE3662D722D852D932D0E94BE0964
S1131110662E272E582E392E6CCA0E942B028E0161
S11311200F5F1F4F28E04AE0C701B6010E94E60C9A
S11311300E942B0260E0C8010E943101682FC8019F
S11311400E943702612C212C6894552457F80F2EE5
S1131150FFE33F2EF02DB3E0BE8B712C4424439467
S113116048CA411041C0711011C020E030E040E293
S113117051E4C501B4010E94DB0A20E030E040E004
S113118050E00E94BE094B015C011AC0262D322D8D
S1131190452D532D60E070E080E291E40E943E0B07
S11311A09B01AC0160E070E080E090E00E94220AC4
S11311B09B01AC01C501B4010E94BE094B015C0155
S11311C08E010F5F1F4F28E04AE0C501B4010E9461
S11311D0E60C0E942B02672DC8010E943101682F82
S11311E0C8010E94370240C0711011C020E030E0F5
S11311F040E251E4C701B6010E94DB0A20E030E07E
S113120040E050E00E94BE096B017C011AC0262D0B
S1131210322D452D532D60E070E080E291E40E9470
S11312203E0B9B01AC0160E070E080E090E00E9426
S1131230220A9B01AC01C701B6010E94BE096B01E1
S11312407C018E010F5F1F4F28E04AE0C701B60101
S11312500E94E60C0E942B02672DC8010E943101F6
S1131260682FC8010E943702772009F4C2C920E020
S113127030E040E85FE3662D722D852D932D0E94AA
S1131280BE09662E272E582E392EB3C92E89223038
S1131290A9F01CF4213039F032C08E898330C9F0B2
S11312A0843011F12CC0A7019601C501B4010E943C
S11312B0DB0A6F8B788F898F9A8F25C0A7019601DF
S11312C0C501B4010E94BD096F8B788F898F9A8FF5
S11312D01AC0A7019601C501B4010E94220A6F8BAE
S11312E0788F898F9A8F0FC0A7019601C501B40129
S11312F00E94BE096F8B788F898F9A8F04C01F8AD2
S1131300188E198E1A8E0E942B028E010F5F1F4FAA
S113131025E047E06F89788D898D9A8D0E94E60CCF
S113132061E0C8010E943101682FC8010E943702A0
S113133060C90E942B028E010F5F1F4F28E04AE014
S1131340C701B6010E94E60C0E942B0260E0C801AE
S11313500E943101682FC8010E943702612C212CA0
S11313606894552457F80F2EFFE33F2EF02D94E098
S11313709E8B712C442443943CC95058BB27AA2704
S11313800ED0DFC0D0D030F0D5D020F031F49F3F64
S113139011F41EF4C5C00EF4E095E7FBBBC0E92FC1
S11313A0E1D080F3BA17620773078407950718F032
S11313B071F49EF5F9C00EF4E0950B2EBA2FA02D12
S11313C00B01B90190010C01CA01A0011124FF27EE
S11313D0591B99F0593F50F4503E68F11A16F040E9
S11313E0A22F232F342F4427585FF3CF46953795E8
S11313F02795A795F0405395C9F77EF41F16BA0BAD
S1131400620B730B840BBAF09150A1F0FF0FBB1F5A
S1131410661F771F881FC2F70EC0BA0F621F731FA3
S1131420841F48F4879577956795B795F7959E3F00
S113143008F0B3CF9395880F08F09927EE0F97958E
S1131440879508950CD07DC075D040F06CD030F0F5
S113145021F45F3F19F05EC05111A7C061C082D072
S113146098F39923C9F35523B1F3951B550BBB2767
S1131470AA2762177307840738F09F5F5F4F220F14
S1131480331F441FAA1FA9F333D00E2E3AF0E0E80D
S113149030D091505040E695001CCAF729D0FE2F59
S11314A027D0660F771F881FBB1F261737074807EB
S11314B0AB07B0E809F0BB0B802DBF01FF279358A1
S11314C05F4F2AF09E3F510568F024C06EC05F3F15
S11314D0ECF3983EDCF3869577956795B795F79589
S11314E09F5FC9F7880F911D9695879597F9089581
S11314F0E1E0660F771F881FBB1F6217730784071D
S1131500BA0720F0621B730B840BBA0BEE1F88F72B
S1131510E095089597F99F6780E870E060E008958A
S11315209FEF80EC089500240A94161617061806F7
S11315300906089500240A941216130614060506D3
S11315400895092E0394000C11F4882352F0BB0F64
S113155040F4BF2B11F460FF04C06F5F7F4F8F4FC7
S11315609F4F089557FD9058440F551F59F05F3F02
S113157071F04795880F97FB991F61F09F3F79F0B1
S113158087950895121613061406551FF2CF469533
S1131590F1DF08C0161617061806991FF1CF8695B5
S11315A07105610508940895E894BB276627772799
S11315B0CB0197F908950BD0C4CFB5DF28F0BADF7B
S11315C018F0952309F0A6CFABCF1124EECFCADFD4
S11315D0A0F3959FD1F3950F50E0551F629FF00142
S11315E0729FBB27F00DB11D639FAA27F00DB11D9B
S11315F0AA1F649F6627B00DA11D661F829F222724
S1131600B00DA11D621F739FB00DA11D621F839FAA
S1131610A00D611D221F749F3327A00D611D231F80
S1131620849F600D211D822F762F6A2F11249F57CE
S113163050408AF0E1F088234AF0EE0FFF1FBB1FF1
S1131640661F771F881F91505040A9F79E3F510590
S113165070F060CFAACF5F3FECF3983EDCF3869541
S113166077956795B795F795E7959F5FC1F7FE2B3B
S1131670880F911D9695879597F90895FA01EE0FB5
S1131680FF1F30962105310599F16115710561F44B
S11316908038BFE39B0749F168949038810561F075
S11316A08038BFEF9B0741F0992342F5FF3FE105E6
S11316B03105210511F1E8940894E795D901AA238D
S11316C029F4AB2FBE2FF85FD0F310C0FF5F70F486
S11316D0A695E0F7F73950F019F0FF3A38F49F7700
S11316E09F930CD00F9007FC905808953EF018CFAC
S11316F060E070E080E89FE308954FE79F775F9391
S11317004F933F932F939ED02F913F914F915F9191
S113171052DF05C019F40EF0FDCE46CF01CF2ADF0B
S1131720C8F39638C0F707F80F92E8942BE33AEA27
S113173048EB5FE74EDF0F920F920F924DB75EB703
S11317400F92C0D0E4E7F0E016D04F915F91EF9193
S1131750FF91E595EE1FFF1F49F0FE57E06844270F
S1131760EE0F441FFA95E1F74195550B32D00F90D7
S113177007FE26C00895DF93CF931F930F93FF9224
S1131780EF92DF927B018C01689405C0DA2EEF01A1
S11317901EDFFE01E894A59125913591459155915F
S11317A0AEF3EF01FCDDFE019701A801DA9479F7AD
S11317B0DF90EF90FF900F911F91CF91DF910895EB
S11317C09B01AC0160E070E080E89FE33BCEA2CED9
S11317D0E9C0D0DEE8F39923D9F3940F511DBBF38C
S11317E09150504094F059F0882332F0660F771FDF
S11317F0881F91505040C1F79E3F510544F7880F10
S1131800911D9695879597F908955F3FACF0983EA2
S11318109CF0BB27869577956795B79508F4B160DA
S11318209395C1F7BB0F58F711F460FFE8CF6F5FD2
S11318307F4F8F4F9F4FE3CFB8CE0EF0B3C070CE23
S1131840689468CE97DEC8F39923D1F3C6F3DF9387
S1131850CF931F930F93FF92C92FDD2788232AF07C
S11318602197660F771F881FDAF720E030E040E801
S11318705FEB9FE3883920F0803E30F021968F772C
S11318807DDDECE9F0E003C079DDE9ECF0E073DF45
S11318908B01BE01EC01FB2E6F5771097595771F03
S11318A0880B990B44D028E132E741E35FE38FDEF4
S11318B0AF2D9801AE01FF900F911F91CF91DF9151
S11318C06EDD3FCEFA01DC01AA0FBB1F9B01AC0108
S11318D0BF5728F422273327442750781FC0B75115
S11318E088F4AB2F0024469537952795011CA395C2
S11318F0D2F3002069F0220F331F441FB395DAF3AB
S11319000DD03BCD61307105A0E88A07B94630F4AB
S11319109B01AC016627772788279078309621F0C1
S113192020833183428353830895E89409C097FB4D
S11319303EF490958095709561957F4F8F4F9F4FA2
S11319409923A9F0F92F96E9BB279395F6958795E6
S113195077956795B795F111F8CFFAF4BB0F11F4A9
S113196060FF1BC06F5F7F4F8F4F9F4F16C0882350
S113197011F096E911C0772321F09EE8872F762F86
S113198005C0662371F096E8862F70E060E02AF0C7
S11319909A95660F771F881FDAF7880F96958795B3
S11319A097F908959F3F31F0915020F487957795EA
S11319B06795B795880F911D9695879597F9089522
S11319C0EE0FFF1F0590F491E02D0994EF920F9311
S11319D01F93CF93DF93E80147FF02C034E101C0B6
S11319E034E0E42FFF27E7FDF095F7FF03C0F195FE
S11319F0E195F109E32E022F2E2FAE010E94070D6F
S1131A00CE01DF91CF911F910F91EF9008956F92C6
S1131A107F929F92AF92BF92CF92DF92EF92FF920A
S1131A200F931F93CF93DF93CDB7DEB729970FB6EC
S1131A30F894DEBF0FBECDBF6A01B22E102F0C3357
S1131A4020F4FF24F394F00E02C04CE3F42E0F2D87
S1131A5027E0AE014F5F5F4F0E94850E7981272FEB
S1131A602970213031F0E1FC06C0E0FC06C060E0E2
S1131A7005C06DE203C06BE201C060E2AE2DA0714F
S1131A8073FF36C0662311F084E001C083E08B1538
S1131A9010F4B81A01C0B12CA1110BC0F6018B2DA2
S1131AA090E2882319F091938150FBCFCB0CD11C89
S1131AB0B12C662331F0F601608396012F5F3F4F0E
S1131AC06901C6010396E2FE05C02EE4F6012083F7
S1131AD031E404C02EE6F601208331E6318322830B
S1131AE0FC012B2D30E22223F1F131932150FBCF65
S1131AF072FF40C0662311F084E001C083E08B15BF
S1131B0010F4B81A01C0B12CA1110BC0F6018B2D31
S1131B1090E2882319F091938150FBCFCB0CD11C18
S1131B20B12C662331F0F601608396012F5F3F4F9D
S1131B306901C6010396E2FE07C029E4F601208389
S1131B402EE4218326E406C029E6F60120832EE64E
S1131B50218326E62283FC012B2D30E2222319F077
S1131B6031932150FBCFFC01EB0DF11D10828EEF60
S1131B709FEFB7C0B1E0611101C0B0E04B2F50E05E
S1131B801816190624F49C012F5F3F4F02C021E070
S1131B9030E0240F351F112329F0412F50E04F5F0F
S1131BA05F4F02C040E050E0420F531F2B2D30E046
S1131BB04217530714F4B41A01C0B12C2E2D287106
S1131BC059F4F6012B2D30E2222319F031932150E0
S1131BD0FBCFCB0CD11CB12CBB2331F0F6016083BD
S1131BE096012F5F3F4F6901A1110BC0F6012B2D08
S1131BF030E3222319F031932150FBCFCB0CD11CBD
S1131C00B12CF80E0A81372F3071A32E74FF03C054
S1131C10013309F4FA941F142CF42F2D293018F0F1
S1131C2028E001C021E0682F392F97FF02C060E04F
S1131C3030E0462F532F612C712C3EE2932EBC01D1
S1131C40621B71099B01DC01A41BB50BE1E0F0E010
S1131C50EC0FFD1FAE0FBF1FE12EF12CF194E194A8
S1131C60F1084F3FFFEF5F0731F4F6019082B601B0
S1131C706F5F7F4F6B01841795074CF0241735076E
S1131C8034F4BD01660D771DFB01118101C010E321
S1131C9041505109FFEF6F1A7F0AB6016F5F7F4F02
S1131CA04E155F0524F0F60110836B01DACF481757
S1131CB0590739F4063320F4053319F4A11001C08F
S1131CC011E3F6011083FB018B2D90E2882319F0B8
S1131CD091938150FBCFFB01EB0DF11D108280E04D
S1131CE090E029960FB6F894DEBF0FBECDBFDF910A
S1131CF0CF911F910F91FF90EF90DF90CF90BF9005
S1131D00AF909F907F906F900895283008F027E05F
S1131D103327DA01990F311D87FD91600096610523
S1131D20710539F432602E5F3D9330E32A95E1F773
S1131D3008959F3F30F080387105610509F03C5FDC
S1131D403C5F3D93913008F08068911DDF93CF9301
S1131D501F930F93FF92EF92192F987F9695E92F77
S1131D6096959695E90FFF27E05BFE4F9927332759
S1131D70EE24FF24A701E70105900894079428F4B2
S1131D80360FE71EF81E491F511D660F771F881F67
S1131D90991F0694A1F70590079428F4E70EF81EFE
S1131DA0491F561FC11D770F881F991F661F069470
S1131DB0A1F70590079428F4F80E491F561FC71F72
S1131DC0D11D880F991F661F771F0694A1F70590F0
S1131DD0079420F4490F561FC71FD81F990F661F79
S1131DE0771F881F0694A9F784911095177041F006
S1131DF0D695C79557954795F794E7941A95C1F7E3
S1131E00E6EFF0E068941590159135916591959100
S1131E1005907FE27395E118F10A430B560BC90B49
S1131E20D009C0F7E10CF11E431F561FC91FD01D76
S1131E307EF4703311F48A95E6CFE894015030F0C3
S1131E40080F0AF40027021708F4202F2395022F05
S1131E507A3328F079E37D932A95E9F710C07D93CE
S1131E602A9589F60694979567953795179517944B
S1131E70E118F10A430B560BC90BD00998F02395CE
S1131E807E9173957A3308F070E37C932013B8F74E
S1131E907E9170617D9330F0839571E37D9370E35F
S1131EA02A95E1F71124EF90FF900F911F91CF91A4
S1111EB0DF91992787FD90950895F894FFCF50
S1091EBE48656C6C6F0026
S9030000FC
