S0120000437A756A6E696B4577792E73726563FF
S11300000C9457000C9469000C9469000C946900DA
S11300100C9469000C9469000C9469000C946900B8
S11300200C9469000C9469000C9469000C946900A8
S11300300C9469000C9469000C9475000C9469008C
S11300400C9469000C9469000C9469000C94690088
S11300500C94690008000000BE922449123EABAA29
S1130060AA2ABECDCCCC4C3E00000080BEABAAAACE
S1130070AA3E00000000BF000000803F0000000016
S113008000084178D3BB4387D1133D190E3CC3BD4F
S11300904282AD2B3E68EC8276BED98FE1A93E4CFC
S11300A080EFFFBE01C4FF7F3F0000000000112469
S11300B01FBECFE5D4E0DEBFCDBF20E0A0E6B0E0B8
S11300C001C01D92A436B207E1F70E94A8000C9467
S11300D01D030C946B001F920F920FB60F92112404
S11300E00F900FBE0F901F9018951F920F920FB68E
S11300F00F9211242F933F938F939F9384B190E099
S1130100909363008093620085B190E090936100C6
S11301108093600080916000909161002091620062
S113012030916300982F8827822B932B9093630040
S1130130809362009F918F913F912F910F900FBEFA
S11301400F901F9018953E9A86B18F6E86B90895C8
S113015078941ABA8FEF81BB12BA0E94A300D1E03F
S113016000E110E4C0E2F8946091620070916300D1
S1130170882777FD8095982F0E948E0120E030E03B
S113018040E85AE30E9487022AE939E941EA50E447
S11301900E9487020E9447022DE73FE345E95FEB97
S11301A00E9487022FED30EE43E850E40E942401C0
S11301B06B017C0120E030E040EA50E40E948801B9
S11301C088230CF4D2BB20E030E040EA50E4C701BD
S11301D0B6010E943E0218165CF420E030E040EACA
S11301E051E4C701B6010E94880188230CF402BBC4
S11301F020E030E040EA51E4C701B6010E943E022B
S113020018165CF420E030E040EF51E4C701B60179
S11302100E94880188230CF412BB20E030E040EFF8
S113022051E4C701B6010E943E0218160CF4C2BB89
S113023078942FEF83EF91E0215080409040E1F7D4
S113024000C0000090CF5058BB27AA270ED0DCC0B6
S1130250CDD030F0D2D020F031F49F3F11F41EF411
S1130260C2C00EF4E095E7FBB8C0E92FDED080F3FE
S1130270BA17620773078407950718F071F49EF59F
S1130280F6C00EF4E0950B2EBA2FA02D0B01B90188
S113029090010C01CA01A0011124FF27591B99F0F8
S11302A0593F50F4503E68F11A16F040A22F232F04
S11302B0342F4427585FF3CF469537952795A79554
S11302C0F0405395C9F77EF41F16BA0B620B730BFB
S11302D0840BBAF09150A1F0FF0FBB1F661F771F6C
S11302E0881FC2F70EC0BA0F621F731F841F48F421
S11302F0879577956795B795F7959E3F08F0B3CFA7
S11303009395880F08F09927EE0F97958795089590
S113031040D008F481E00895E89409C097FB3EF4C6
S113032090958095709561957F4F8F4F9F4F99233E
S1130330A9F0F92F96E9BB279395F69587957795BC
S11303406795B795F111F8CFFAF4BB0F11F460FF7C
S11303501BC06F5F7F4F8F4F9F4F16C0882311F0D4
S113036096E911C0772321F09EE8872F762F05C0E8
S1130370662371F096E8862F70E060E02AF09A9583
S1130380660F771F881FDAF7880F9695879597F978
S11303900895990F0008550FAA0BE0E8FEEF161612
S11303A01706E807F907C0F012161306E407F50765
S11303B098F0621B730B840B950B39F40A2661F0D9
S11303C0232B242B252B21F408950A2609F4A1407C
S11303D0A6958FEF811D811D089597F99F6780E889
S11303E070E060E008959FEF80EC089500240A9483
S11303F01616170618060906089500240A941216FC
S11304001306140605060895092E0394000C11F42E
S1130410882352F0BB0F40F4BF2B11F460FF04C0DB
S11304206F5F7F4F8F4F9F4F089557FD9058440F34
S1130430551F59F05F3F71F04795880F97FB991F3F
S113044061F09F3F79F087950895121613061406FC
S1130450551FF2CF4695F1DF08C016161706180689
S1130460991FF1CF86957105610508940895E89464
S1130470BB2766277727CB0197F908958ADF08F40D
S11304808FEF08950EF0A6C0AECF6894A6CFD5DF47
S1130490C8F39923D1F3C6F3DF93CF931F930F933C
S11304A0FF92C92FDD2788232AF02197660F771F33
S11304B0881FDAF720E030E040E85FEB9FE38839FB
S11304C020F0803E30F021968F77BEDEE4E5F0E048
S11304D003C0BADEE1E8F0E08BD08B01BE01EC0191
S11304E0FB2E6F5771097595771F880B990B16DFD3
S11304F028E132E741E35FE316D0AF2D9801AE0166
S1130500FF900F911F91CF91DF91AFDE7DCF0BD084
S11305107BCF6CDF28F071DF18F0952309F05DCFF5
S113052062CF1124A5CF81DFA0F3959FD1F3950F5E
S113053050E0551F629FF001729FBB27F00DB11D63
S1130540639FAA27F00DB11DAA1F649F6627B00DF3
S1130550A11D661F829F2227B00DA11D621F739FDC
S1130560B00DA11D621F839FA00D611D221F749FEA
S11305703327A00D611D231F849F600D211D822F31
S1130580762F6A2F11249F5750408AF0E1F0882378
S11305904AF0EE0FFF1FBB1F661F771F881F915085
S11305A05040A9F79E3F510570F017CF61CF5F3FD0
S11305B0ECF3983EDCF3869577956795B795F795B8
S11305C0E7959F5FC1F7FE2B880F911D9695879540
S11305D097F908959F3F31F0915020F487957795CE
S11305E06795B795880F911D9695879597F9089506
S11305F0DF93CF931F930F93FF92EF92DF927B01D0
S11306008C01689405C0DA2EEF018DDFFE01E894B9
S1130610A5912591359145915591AEF3EF0125DED4
S1130620FE019701A801DA9479F7DF90EF90FF902B
S11106300F911F91CF91DF910895F894FFCFA1
S9030000FC
