:100000000C942A000C9447000C9447000C94470071
:100010000C9447000C9447000C9447000C94470044
:100020000C9447000C9447000C9447000C94470034
:100030000C9447000C9447000C9447000C94470024
:100040000C9447000C9447000C9447000C94470014
:100050000C94470011241FBECFE5D8E0DEBFCDBF12
:1000600010E0A0E6B0E0E2EAF3E002C005900D92F5
:10007000A036B107D9F710E0A0E6B0E001C01D92AC
:10008000A036B107E1F70E9449000C94CF010C940F
:1000900000008AB3807E8ABB87B38F6187BB81B340
:1000A000876081BB8BB3807E8BBB88B3807E88BB2F
:1000B000909820E030E080E090E061E070E040E087
:1000C00050E001C0CA01009761F52115310509F022
:1000D00034C1C09AC19AC29AC39AC49AC8990FC02F
:1000E000C9990FC0CA990FC0CB990FC0F62FE72F3F
:1000F000CC9902C0F42FE52F8F2F9E2F07C0CB0184
:1001000005C0CB0103C0CB0101C0CB01C098C19891
:10011000C298C398C498ABE4BDE11197F1F700C051
:1001200000008130910509F005C12115310559F60E
:100130008FE996E8A1E081509040A040E1F700C02F
:100140000000C09AA3ECB9E01197F1F700C00000DD
:10015000C89B0FC0C9990FC0CA990FC0CB990FC0D7
:10016000962F872FCC9B02C0942F852F292F382FB5
:1001700007C09A0105C09A0103C09A0101C09A0103
:10018000E3ECF9E03197F1F700C00000C0988BE490
:100190009DE10197F1F700C00000C19AA3ECB9E01E
:1001A0001197F1F700C00000C8990FC0C99B0FC09C
:1001B000CA990FC0CB990FC0962F872FCC9B02C036
:1001C000942F852FE92FF82F07C0FA0105C0FA01F7
:1001D00003C0FA0101C0FA0183EC99E00197F1F73D
:1001E00000C00000C198ABE4BDE11197F1F700C079
:1001F0000000C29A83EC99E00197F1F700C000007B
:10020000C8990FC0C9990FC0CA9B0FC0CB990FC026
:10021000962F872FCC9B02C0942F852FA92FB82F04
:1002200007C0DA0105C0DA0103C0DA0101C0DA0152
:1002300083EC99E00197F1F700C00000C2988BE4CD
:100240009DE10197F1F700C00000C39A83EC99E0AB
:100250000197F1F700C00000C8990FC0C9990FC0FD
:10026000CA990FC0CB9B0FC0962F872FCC9B02C083
:10027000942F852FC92FD82F07C0EA0105C0EA01A6
:1002800003C0EA0101C0EA0183EC99E00197F1F7AC
:1002900000C00000C3988BE49DE10197F1F700C016
:1002A0000000C49A83EC99E00197F1F700C00000C8
:1002B000C8990FC0C9990FC0CA990FC0CB990FC078
:1002C000062F172FCC9902C0042F152FE02EF12EE8
:1002D00007C07A0105C07A0103C07A0101C07A0122
:1002E00083EC99E00197F1F700C00000C4988BE41B
:1002F0009DE10197F1F700C0000021153105B1F033
:100300003097A1F0109791F0209781F0E114F1045B
:1003100069F0909A929A8FE996E8A1E08150904016
:10032000A040E1F700C0000092980BC09098919A0D
:10033000929A07C0009709F0C6CE2130310509F026
:10034000C1CEC09AC19AC29AC39AC49AA3ECB9E02A
:100350001197F1F700C00000C8990DC0C9990BC0F2
:10036000CA9909C0CB9907C0CC9905C092989098BA
:1003700091989A0107C0EFE4F3EC3197F1F700C0D0
:1003800000009B0183EC99E00197F1F700C00000A9
:10039000C098C198C298C398C498CA0194CEF894E2
:1003A000FFCFFFFFFFFFFFFFFFFFFFFFFFFFFFFF8D
:00000001FF
