S00B00004772612E73726563FF
S11300000C9437000C944C000C944C000C944C0051
S11300100C944C000C944C000C944C000C944C002C
S11300200C944C000C944C000C944C000C944C001C
S11300300C944C000C944C000C944C000C944C000C
S11300400C944C000C944C000C944C000C944C00FC
S11300500C944C00690069006C006F00720075001C
S113006078007B007E008100840087008A001124D0
S11300701FBECFE5D8E0DEBFCDBF10E0A0E6B0E004
S1130080E6E8F5E002C005900D92A436B107D9F771
S11300900E9444010C94C1020C9400008FEF8ABBAF
S11300A090EC9BBB98EF97BB88BB08959AE19A9517
S11300B0F1F700C090EC9BBB992787FD9095A92F81
S11300C0B92F8D30910540F5FC01E65DFF4F0C948E
S11300D0E60180EC8BBB089589EE8BBB089583EE1B
S11300E08BBB08958BEC8BBB08958CEE8BBB089572
S11300F086EE8BBB08958EEC8BBB089588EF8BBB8B
S1130100089582EF8BBB08958AED8BBB089580E43C
S11301108BBB089580E88BBB089550E040E07AC023
S113012026B330E0082E02C0359527950A94E2F7ED
S113013020FD15C02FEF36E761E0215030406040CC
S1130140E1F700C0000026B330E0082E02C0359568
S113015027950A94E2F720FD02C08E5F0895019668
S113016083309105E9F6C39AC49882E08A95F1F741
S113017000C0852F942F26B330E0082E02C0359599
S113018027950A94E2F720FD15C02FEF36E761E0CA
S1130190215030406040E1F700C0000026B330E059
S11301A0082E02C0359527950A94E2F720FD02C077
S11301B08B5F0895019683309105E9F6C49AC5983A
S11301C082E08A95F1F700C0852F942F26B330E0A2
S11301D0082E02C0359527950A94E2F720FD15C034
S11301E02FEF36E761E0215030406040E1F700C076
S11301F0000026B330E0082E02C0359527950A94F6
S1130200E2F720FD02C0885F0895019683309105CE
S1130210E9F6C59AC39882E08A95F1F700C0852F64
S1130220942F7ECFEF92FF920F931F93CF93DF9380
S1130230E62EFF24E7FCF0941E141F04CCF4082FD0
S1130240192FC0E0D0E00E948D00F80191918F0138
S1130250891310C0FFEF21EE84E0F150204080406C
S1130260E1F700C000002196CE15DF0564F304C059
S113027080E003C080E001C081E0DF91CF911F9155
S11302800F91FF90EF900895CF93DF93CDB7DEB732
S1130290E2970FB6F894DEBF0FBECDBF0E944E00AA
S11302A00F2EF3E04F2EF02DB12C0F2EF9E0CF2EB0
S11302B0D12CF02DCE0101967C01982EAF2C0F2E5F
S11302C0F3E08F2EF02D0F2EF3E06F2EF02D712C16
S11302D014143CF55B2C052D112707FD10950E9485
S11302E04E02B6010E94D2018E5FF701E00FF11FAA
S11302F08083552041F0FE01E00FF11F90818913A6
S113030002C05A940BC00E9456009FEF24E38CE075
S1130310915020408040E1F700C0000053945414F1
S1130320D4F28B2D0E945600642D892D9A2D0E94A3
S11303301201882339F18CE00E945600439491E322
S1130340941534F5062D172D8CE00E9456002FE7E6
S11303508BE898E0215080409040E1F700C0000015
S11303608B2D0E9456002FE78BE898E021508040A7
S11303709040E1F700C0000001501109011511057A
S113038019F705C08BE00E945600482C01C0482C88
S11303902FEF89E698E1215080409040E1F700C0BA
S11303A0000096CF97FB072E16F4009407D077FD34
S11303B009D00E94EC0107FC05D03EF4909581958C
S11303C09F4F0895709561957F4F0895EE0FFF1F1D
S11303D00590F491E02D0994AA1BBB1B51E107C0C1
S11303E0AA1FBB1FA617B70710F0A61BB70B881FC1
S11303F0991F5A95A9F780959095BC01CD01089550
S11304008F929F92AF92BF92CF92DF92EF92FF9220
S1130410CF93DF93EC01688179818A819B81611597
S113042071058105910521F464E279ED8BE597E08E
S11304302DE133EF41E050E00E945E0249015A0190
S11304409B01AC01A7EAB1E40E947D026B017C012F
S1130450ACEEB4EFA50194010E948B02C60ED71E28
S1130460E81EF91EF7FE06C081E0C81AD108E108AB
S113047080E8F80AC882D982EA82FB82C6019F77A3
S1130480DF91CF91FF90EF90DF90CF90BF90AF902E
S11304909F908F9008950E940002089580E690E056
S11304A00E9400020895A0E0B0E080936000909361
S11304B06100A0936200B09363000895052E97FB3A
S11304C01EF400940E94750257FD07D00E9490020A
S11304D007FC03D04EF40C9475025095409530956A
S11304E021953F4F4F4F5F4F08959095809570959C
S11304F061957F4F8F4F9F4F08950E94B202A59F31
S1130500900DB49F900DA49F800D911D112408950A
S1130510B7FF0C947D020E947D02821B930B089509
S1130520A1E21A2EAA1BBB1BFD010DC0AA1FBB1FF3
S1130530EE1FFF1FA217B307E407F50720F0A21B65
S1130540B30BE40BF50B661F771F881F991F1A94D2
S113055069F760957095809590959B01AC01BD01FC
S1130560CF010895A29FB001B39FC001A39F700D56
S1130570811D1124911DB29F700D811D1124911DA7
S10905800895F894FFCF7A
S1070586010000006C
S9030000FC
