:100000000C94A7000C94C4000C94C4000C94C4007D
:100010000C94C4000C94C4000C94C4000C94C40050
:100020000C94C4000C94C4000C94C4000C94C40040
:100030000C94C4000C94C4000C94D0000C94C40024
:100040000C94C4000C94C4000C94C4000C94C40020
:100050000C94C40000407A10F35A00A0724E1809A4
:100060000010A5D4E80000E87648170000E40B541F
:10007000020000CA9A3B000000E1F50500008096EE
:100080009800000040420F000000A0860100000020
:10009000102700000000E8030000000064000000DA
:1000A00000000A00000000000100000000002C76A3
:1000B000D888DC674F0823DFC1DFAE59E1B1B796BE
:1000C000E5E3E453C63AE651997696E8E6C284261B
:1000D000EB898C9B62ED407C6FFCEFBC9C9F40F2F7
:1000E000BAA56FA5F490055A2AF75C936B6CF96773
:1000F0006DC11BFCE0E40D47FEF520E6B500D0ED38
:10010000902E0300943577050080841E080000209F
:100110004E0A000000C80C333333330F986E12833D
:100120001141EF8D2114893BE65516CFFEE6DB1811
:10013000D1844B381BF77C1D901DA4BBE4242032D6
:1001400084725E228100C9F124ECA1E53D271124CF
:100150001FBECFE5D4E0DEBFCDBF10E0A0E6B0E02B
:10016000E8E6FCE002C005900D92A836B107D9F789
:1001700020E0A8E6B0E001C01D92AC36B207E1F77E
:100180000E949A010C9432060C94C6001F920F92A2
:100190000FB60F9211240F900FBE0F901F9018955D
:1001A0001F920F920FB60F9211242F933F938F93AC
:1001B0009F9384B190E090936B0080936A0085B127
:1001C00090E090936900809368008091680090911E
:1001D000690020916A0030916B00982F8827822B4C
:1001E000932B90936B0080936A009F918F913F9126
:1001F0002F910F900FBE0F901F9018953E9A86B1C9
:100200008F6E86B90895C39A98B3282F207F9F7068
:10021000922B98BB3AE13A95F1F700C0C39892E06F
:100220009A95F1F700C0C39A28B330E18302C00168
:100230001124922F9F70892B88BB8AE18A95F1F750
:1002400000C0C3989AE69A95F1F700C00895C29845
:1002500081E00E940301C29A8FE99FE00197F1F7C4
:1002600000C0000008950F931F93CF93DF93062FD4
:1002700016164CF4C82FD92F10E089910E94030163
:100280001F5F1013FACFDF91CF911F910F91089547
:100290008FEF87BB18BAC09A2FEF80E792E021500A
:1002A00080409040E1F700C00000C29883E090E0F9
:1002B000C39A28B3206328BBEAE1EA95F1F700C0AE
:1002C000C398E7ECF0E03197F1F700C00000019728
:1002D000009771F7C39AC498FAE1FA95F1F700C054
:1002E000C398C29888E20E940301C29A22E02A952C
:1002F000F1F700C0C29886E00E940301C29A82E032
:100300008A95F1F700C0C2988EE00E940301C29A5C
:10031000EFECF7E03197F1F700C00000C29881E000
:100320000E940301C29A8FE99FE00197F1F700C094
:1003300000000895CF93DF93CDB7DEB765970FB672
:10034000F894DEBF0FBECDBF78941ABA8FEF81BB91
:1003500012BA0E94480187E0E0E6F0E0DE011B9659
:1003600001900D928A95E1F783E794E7A0E2B3E468
:100370008A8B9B8BAC8BBD8B0E94FE006894AA2459
:10038000A5F86894992493F86894BB24B1F8F8947C
:100390000E94270160916A0070916B00882777FDA9
:1003A0008095982F0E94A40220E030E040E85AE3B4
:1003B0000E9458032AE939E941EA50E40E945803AF
:1003C0002DE13AE54CEB51E40E94580326EF38E268
:1003D00043E851E40E9439026B017C018E010F5FFA
:1003E0001F4F25E047E00E94BB0367E0CE010B965C
:1003F0000E94330165E0C8010E94330164E0CE0130
:1004000042960E94330120E030E040E951E4C70108
:10041000B6010E949E0288230CF4A2BA20E030E0CC
:1004200040E951E4C701B6010E94540318165CF478
:1004300020E030E048EC51E4C701B6010E949E0282
:1004400088230CF492BA20E030E048EC51E4C70174
:10045000B6010E94540318160CF4B2BA78942FE730
:100460008AE196E0215080409040E1F700C0000012
:100470008ECF5058BB27AA270ED0DCC0CDD030F08D
:10048000D2D020F031F49F3F11F41EF4C2C00EF41C
:10049000E095E7FBB8C0E92FDED080F3BA1762071A
:1004A00073078407950718F071F49EF5F6C00EF4F3
:1004B000E0950B2EBA2FA02D0B01B90190010C0174
:1004C000CA01A0011124FF27591B99F0593F50F48C
:1004D000503E68F11A16F040A22F232F342F4427E4
:1004E000585FF3CF469537952795A795F0405395DC
:1004F000C9F77EF41F16BA0B620B730B840BBAF0AC
:100500009150A1F0FF0FBB1F661F771F881FC2F716
:100510000EC0BA0F621F731F841F48F4879577952A
:100520006795B795F7959E3F08F0B3CF9395880FE1
:1005300008F09927EE0F97958795089540D008F415
:1005400081E00895E89409C097FB3EF4909580956A
:10055000709561957F4F8F4F9F4F9923A9F0F92F89
:1005600096E9BB279395F695879577956795B79507
:10057000F111F8CFFAF4BB0F11F460FF1BC06F5FED
:100580007F4F8F4F9F4F16C0882311F096E911C0FF
:10059000772321F09EE8872F762F05C0662371F020
:1005A00096E8862F70E060E02AF09A95660F771F34
:1005B000881FDAF7880F9695879597F90895990F10
:1005C0000008550FAA0BE0E8FEEF16161706E8071D
:1005D000F907C0F012161306E407F50798F0621B3E
:1005E000730B840B950B39F40A2661F0232B242B13
:1005F000252B21F408950A2609F4A140A6958FEF32
:10060000811D811D089597F99F6780E870E060E083
:1006100008959FEF80EC089500240A94161617069B
:1006200018060906089500240A94121613061406E3
:1006300005060895092E0394000C11F4882352F046
:10064000BB0F40F4BF2B11F460FF04C06F5F7F4FFE
:100650008F4F9F4F089557FD9058440F551F59F0E5
:100660005F3F71F04795880F97FB991F61F09F3F9F
:1006700079F087950895121613061406551FF2CFC8
:100680004695F1DF08C0161617061806991FF1CF18
:1006900086957105610508940895E894BB2766273F
:1006A0007727CB0197F908958ADF08F48FEF089533
:1006B0000BD0C0CFB1DF28F0B6DF18F0952309F0DA
:1006C000A2CFA7CF1124EACFC6DFA0F3959FD1F325
:1006D000950F50E0551F629FF001729FBB27F00DF0
:1006E000B11D639FAA27F00DB11DAA1F649F662745
:1006F000B00DA11D661F829F2227B00DA11D621F94
:10070000739FB00DA11D621F839FA00D611D221F4D
:10071000749F3327A00D611D231F849F600D211D31
:10072000822F762F6A2F11249F5750408AF0E1F0D4
:1007300088234AF0EE0FFF1FBB1F661F771F881F1D
:1007400091505040A9F79E3F510570F05CCFA6CF65
:100750005F3FECF3983EDCF3869577956795B79508
:10076000F795E7959F5FC1F7FE2B880F911D969532
:10077000879597F90895EF920F931F93CF93DF9387
:10078000E80147FF02C034E101C034E0E42FFF2755
:10079000E7FDF095F7FF03C0F195E195F109E32E30
:1007A000022F2E2FAE010E94DC03CE01DF91CF91EC
:1007B0001F910F91EF9008956F927F929F92AF9249
:1007C000BF92CF92DF92EF92FF920F931F93CF933E
:1007D000DF93CDB7DEB729970FB6F894DEBF0FBE13
:1007E000CDBF6A01B22E102F0C3320F4FF24F394F6
:1007F000F00E02C04CE3F42E0F2D27E0AE014F5F48
:100800005F4F0E945A057981272F2970213031F0DE
:10081000E1FC06C0E0FC06C060E005C06DE203C07C
:100820006BE201C060E2AE2DA07173FF36C066239B
:1008300011F084E001C083E08B1510F4B81A01C0F8
:10084000B12CA1110BC0F6018B2D90E2882319F079
:1008500091938150FBCFCB0CD11CB12C662331F08E
:10086000F601608396012F5F3F4F6901C601039631
:10087000E2FE05C02EE4F601208331E404C02EE63A
:10088000F601208331E631832283FC012B2D30E2F7
:100890002223F1F131932150FBCF72FF40C0662338
:1008A00011F084E001C083E08B1510F4B81A01C088
:1008B000B12CA1110BC0F6018B2D90E2882319F009
:1008C00091938150FBCFCB0CD11CB12C662331F01E
:1008D000F601608396012F5F3F4F6901C6010396C1
:1008E000E2FE07C029E4F60120832EE4218326E4FA
:1008F00006C029E6F60120832EE6218326E6228320
:10090000FC012B2D30E2222319F031932150FBCF33
:10091000FC01EB0DF11D10828EEF9FEFB7C0B1E02F
:10092000611101C0B0E04B2F50E01816190624F4F5
:100930009C012F5F3F4F02C021E030E0240F351FA4
:10094000112329F0412F50E04F5F5F4F02C040E07C
:1009500050E0420F531F2B2D30E04217530714F481
:10096000B41A01C0B12C2E2D287159F4F6012B2D8B
:1009700030E2222319F031932150FBCFCB0CD11C54
:10098000B12CBB2331F0F601608396012F5F3F4FFE
:100990006901A1110BC0F6012B2D30E3222319F0C0
:1009A00031932150FBCFCB0CD11CB12CF80E0A8116
:1009B000372F3071A32E74FF03C0013309F4FA946A
:1009C0001F142CF42F2D293018F028E001C021E04D
:1009D000682F392F97FF02C060E030E0462F532F79
:1009E000612C712C3EE2932EBC01621B71099B01AC
:1009F000DC01A41BB50BE1E0F0E0EC0FFD1FAE0F36
:100A0000BF1FE12EF12CF194E194F1084F3FFFEF6D
:100A10005F0731F4F6019082B6016F5F7F4F6B0183
:100A2000841795074CF02417350734F4BD01660D83
:100A3000771DFB01118101C010E341505109FFEF07
:100A40006F1A7F0AB6016F5F7F4F4E155F0524F066
:100A5000F60110836B01DACF4817590739F40633D2
:100A600020F4053319F4A11001C011E3F60110833D
:100A7000FB018B2D90E2882319F091938150FBCFDD
:100A8000FB01EB0DF11D108280E090E029960FB67E
:100A9000F894DEBF0FBECDBFDF91CF911F910F91B4
:100AA000FF90EF90DF90CF90BF90AF909F907F909E
:100AB0006F900895283008F027E03327DA01990F66
:100AC000311D87FD916000966105710539F4326032
:100AD0002E5F3D9330E32A95E1F708959F3F30F074
:100AE00080387105610509F03C5F3C5F3D939130B2
:100AF00008F08068911DDF93CF931F930F93FF92AF
:100B0000EF92192F987F9695E92F96959695E90F74
:100B1000FF27E255FF4F99273327EE24FF24A70133
:100B2000E70105900894079428F4360FE71EF81E95
:100B3000491F511D660F771F881F991F0694A1F743
:100B40000590079428F4E70EF81E491F561FC11D93
:100B5000770F881F991F661F0694A1F705900794C9
:100B600028F4F80E491F561FC71FD11D880F991F63
:100B7000661F771F0694A1F70590079420F4490F8C
:100B8000561FC71FD81F990F661F771F881F06940F
:100B9000A9F784911095177041F0D695C795579590
:100BA0004795F794E7941A95C1F7E4E5F0E0689467
:100BB0001590159135916591959105907FE273950A
:100BC000E118F10A430B560BC90BD009C0F7E10C31
:100BD000F11E431F561FC91FD01D7EF4703311F440
:100BE0008A95E6CFE894015030F0080F0AF4002708
:100BF000021708F4202F2395022F7A3328F079E387
:100C00007D932A95E9F710C07D932A9589F606947D
:100C100097956795379517951794E118F10A430B47
:100C2000560BC90BD00998F023957E9173957A33B2
:100C300008F070E37C932013B8F77E9170617D9388
:100C400030F0839571E37D9370E32A95E1F71124E9
:100C5000EF90FF900F911F91CF91DF91992787FD22
:080C600090950895F894FFCF70
:080C680054656D702E3A200066
:00000001FF
